{
  "contractName": "Lottery",
  "abi": [
    {
      "constant": true,
      "inputs": [],
      "name": "owner",
      "outputs": [
        {
          "name": "",
          "type": "address"
        }
      ],
      "payable": false,
      "stateMutability": "view",
      "type": "function",
      "signature": "0x8da5cb5b"
    },
    {
      "inputs": [],
      "payable": false,
      "stateMutability": "nonpayable",
      "type": "constructor",
      "signature": "constructor"
    },
    {
      "anonymous": false,
      "inputs": [
        {
          "indexed": false,
          "name": "index",
          "type": "uint256"
        },
        {
          "indexed": false,
          "name": "bettor",
          "type": "address"
        },
        {
          "indexed": false,
          "name": "amount",
          "type": "uint256"
        },
        {
          "indexed": false,
          "name": "challenges",
          "type": "bytes1"
        },
        {
          "indexed": false,
          "name": "answerBlockNumber",
          "type": "uint256"
        }
      ],
      "name": "BET",
      "type": "event",
      "signature": "0x100791de9f40bf2d56ffa6dc5597d2fd0b2703ea70bc7548cd74c04f5d215ab7"
    },
    {
      "constant": true,
      "inputs": [],
      "name": "getPot",
      "outputs": [
        {
          "name": "pot",
          "type": "uint256"
        }
      ],
      "payable": false,
      "stateMutability": "view",
      "type": "function",
      "signature": "0x403c9fa8"
    },
    {
      "constant": false,
      "inputs": [
        {
          "name": "challenges",
          "type": "bytes1"
        }
      ],
      "name": "bet",
      "outputs": [
        {
          "name": "result",
          "type": "bool"
        }
      ],
      "payable": true,
      "stateMutability": "payable",
      "type": "function",
      "signature": "0xf4b46f5b"
    },
    {
      "constant": true,
      "inputs": [
        {
          "name": "index",
          "type": "uint256"
        }
      ],
      "name": "getBetInfo",
      "outputs": [
        {
          "name": "answerBlockNumber",
          "type": "uint256"
        },
        {
          "name": "bettor",
          "type": "address"
        },
        {
          "name": "challenges",
          "type": "bytes1"
        }
      ],
      "payable": false,
      "stateMutability": "view",
      "type": "function",
      "signature": "0x79141f80"
    }
  ],
  "bytecode": "0x608060405234801561001057600080fd5b50336000806101000a81548173ffffffffffffffffffffffffffffffffffffffff021916908373ffffffffffffffffffffffffffffffffffffffff160217905550610732806100606000396000f3fe608060405260043610610062576000357c0100000000000000000000000000000000000000000000000000000000900463ffffffff168063403c9fa81461006757806379141f80146100925780638da5cb5b1461015f578063f4b46f5b146101b6575b600080fd5b34801561007357600080fd5b5061007c61021e565b6040518082815260200191505060405180910390f35b34801561009e57600080fd5b506100cb600480360360208110156100b557600080fd5b8101908080359060200190929190505050610228565b604051808481526020018373ffffffffffffffffffffffffffffffffffffffff1673ffffffffffffffffffffffffffffffffffffffff168152602001827effffffffffffffffffffffffffffffffffffffffffffffffffffffffffffff19167effffffffffffffffffffffffffffffffffffffffffffffffffffffffffffff19168152602001935050505060405180910390f35b34801561016b57600080fd5b5061017461034d565b604051808273ffffffffffffffffffffffffffffffffffffffff1673ffffffffffffffffffffffffffffffffffffffff16815260200191505060405180910390f35b610204600480360360208110156101cc57600080fd5b8101908080357effffffffffffffffffffffffffffffffffffffffffffffffffffffffffffff19169060200190929190505050610372565b604051808215151515815260200191505060405180910390f35b6000600454905090565b60008060006102356106ac565b6003600086815260200190815260200160002060606040519081016040529081600082015481526020016001820160009054906101000a900473ffffffffffffffffffffffffffffffffffffffff1673ffffffffffffffffffffffffffffffffffffffff1673ffffffffffffffffffffffffffffffffffffffff1681526020016001820160149054906101000a90047f0100000000000000000000000000000000000000000000000000000000000000027effffffffffffffffffffffffffffffffffffffffffffffffffffffffffffff19167effffffffffffffffffffffffffffffffffffffffffffffffffffffffffffff1916815250509050806000015193508060200151925080604001519150509193909250565b6000809054906101000a900473ffffffffffffffffffffffffffffffffffffffff1681565b60006611c37937e08000341415156103f2576040517f08c379a000000000000000000000000000000000000000000000000000000000815260040180806020018281038252600e8152602001807f4e6f7420656e6f7567682045544800000000000000000000000000000000000081525060200191505060405180910390fd5b6103fb82610546565b151561046f576040517f08c379a000000000000000000000000000000000000000000000000000000000815260040180806020018281038252601a8152602001807f4661696c20746f206164642061206e65772042657420496e666f00000000000081525060200191505060405180910390fd5b7f100791de9f40bf2d56ffa6dc5597d2fd0b2703ea70bc7548cd74c04f5d215ab7600180540333348560034301604051808681526020018573ffffffffffffffffffffffffffffffffffffffff1673ffffffffffffffffffffffffffffffffffffffff168152602001848152602001837effffffffffffffffffffffffffffffffffffffffffffffffffffffffffffff19167effffffffffffffffffffffffffffffffffffffffffffffffffffffffffffff191681526020018281526020019550505050505060405180910390a160019050919050565b60006105506106ac565b33816020019073ffffffffffffffffffffffffffffffffffffffff16908173ffffffffffffffffffffffffffffffffffffffff1681525050600343018160000181815250508281604001907effffffffffffffffffffffffffffffffffffffffffffffffffffffffffffff191690817effffffffffffffffffffffffffffffffffffffffffffffffffffffffffffff191681525050806003600060015481526020019081526020016000206000820151816000015560208201518160010160006101000a81548173ffffffffffffffffffffffffffffffffffffffff021916908373ffffffffffffffffffffffffffffffffffffffff16021790555060408201518160010160146101000a81548160ff02191690837f0100000000000000000000000000000000000000000000000000000000000000900402179055509050506001600081548092919060010191905055506001915050919050565b60606040519081016040528060008152602001600073ffffffffffffffffffffffffffffffffffffffff16815260200160007effffffffffffffffffffffffffffffffffffffffffffffffffffffffffffff19168152509056fea165627a7a72305820b81b1a0424f3687881985864d720eed82c54425bb0ad14bdff8e972f920f20cd0029",
  "source": "pragma solidity >=0.4.22 <0.9.0;\r\ncontract Lottery {\r\n    struct BetInfo {\r\n        uint256 answerBlockNumber;\r\n        address payable bettor;\r\n        byte challenges; // 0xab\r\n    }\r\n    // public으로 만들게 되면 자동으로 getter를 만들어 준다.\r\n    // 그래서 Smart Contract 외부에서 변수(owner) 값을 바로 확인 가능.\r\n    address public owner;\r\n    uint256 private _tail;\r\n    uint256 private _head;\r\n    mapping(uint256 => BetInfo) private _bets;\r\n    uint256 internal constant BLOCK_LIMIT = 256;\r\n    uint256 internal constant BET_BLOCK_INTERNAL = 3;\r\n    uint256 internal constant BET_AMOUNT = 5 * 10**15;\r\n    uint256 private _pot;\r\n    event BET(uint256 index, address bettor, uint256 amount, byte challenges, uint256 answerBlockNumber);\r\n    // Smart Contracts가 실행,배포가 될 떄 가장먼저 실행 되는 함수!!\r\n    constructor() public {\r\n        // 배포가 될 떄 보낸사름으로 owner를 하겠다.\r\n        // msg.sender는 Smart Contracts 자체에서 제공 해 주는 글로벌 변수\r\n        owner = msg.sender;\r\n    }\r\n    function getPot() public view returns (uint256 pot) {\r\n        return _pot;\r\n    }\r\n    // Bet\r\n    /**\r\n    * @dev 배팅을 한다. 유저는 0.005 ETF를 보내야 하고, 배팅용 1 byte 글자를 보낸다.\r\n    * 큐에 저장된 베팅 정보는 이후 distribute 함수에서 해결된다.\r\n    * @param challenges 유저가 베팅하는 글자\r\n    * @return 함수가 잘 수행되었는지 확인해주는 bool 값\r\n    */\r\n    function bet(byte challenges) public payable returns (bool result) {\r\n      // Check the proper ether is sent\r\n      require(msg.value == BET_AMOUNT, \"Not enough ETH\");\r\n      // Push bet to the queue\r\n      require(pushBet(challenges), \"Fail to add a new Bet Info\");\r\n      // Emit event\r\n      emit BET(_tail - 1, msg.sender, msg.value, challenges, block.number + BET_BLOCK_INTERNAL);\r\n      return true;\r\n    }\r\n    // save the bet to the queue\r\n    // Distribute\r\n      // check the answer\r\n    function getBetInfo(uint256 index) public view returns (uint256 answerBlockNumber, address bettor, byte challenges) {\r\n      BetInfo memory b = _bets[index];\r\n      answerBlockNumber = b.answerBlockNumber;\r\n      bettor = b.bettor;\r\n      challenges = b.challenges;\r\n    }\r\n    function pushBet(byte challenges) internal returns (bool) {\r\n       BetInfo memory b;\r\n       b.bettor = msg.sender;\r\n       b.answerBlockNumber = block.number + BET_BLOCK_INTERNAL;\r\n       b.challenges = challenges;\r\n       _bets[_tail] = b;\r\n       _tail++;\r\n       return true;\r\n    }\r\n    function popBet(uint256 index) internal returns (bool) {\r\n      // delete는 일정량의 Gas를 돌려준다. 그래서 사용하지 않는 값은 delete해주는게 좋다. \r\n      delete _bets[index];\r\n      return true;\r\n    }\r\n}",
  "sourcePath": "C:/Users/ablock_2/Desktop/lottery/contracts/Lottery.sol",
  "compiler": {
    "name": "solc",
    "version": "0.5.0+commit.1d4f565a.Emscripten.clang"
  },
  "schemaVersion": "3.0.1",
  "updatedAt": "2022-02-22T07:10:21.812Z",
  "devdoc": {
    "methods": {
      "bet(bytes1)": {
        "details": "배팅을 한다. 유저는 0.005 ETF를 보내야 하고, 배팅용 1 byte 글자를 보낸다.\r 큐에 저장된 베팅 정보는 이후 distribute 함수에서 해결된다.\r",
        "params": {
          "challenges": "유저가 베팅하는 글자\r"
        },
        "return": "함수가 잘 수행되었는지 확인해주는 bool 값\r"
      }
    }
  },
  "userdoc": {
    "methods": {}
  }
}